:020000040800F2
:10000000480500209D010008372500082921000827
:1000100035250008E9070008C92C00080000000089
:100020000000000000000000000000005B25000848
:10003000EB07000800000000592500085D250008B6
:10004000B7010008B7010008B7010008B7010008B0
:10005000B7010008B7010008B7010008B7010008A0
:10006000B7010008B7010008B7010008B701000890
:10007000B7010008B7010008B7010008B701000880
:10008000B7010008B7010008B7010008B701000870
:10009000B7010008B7010008B7010008B701000860
:1000A000B7010008B7010008B7010008B701000850
:1000B0002D2600080000000000000000B701000825
:1000C000B7010008B7010008B701000800000000F0
:1000D000B7010008B7010008B7010008B701000820
:1000E000B7010008B7010008B701000800000000D0
:1000F0000000000000000000000000000000000000
:10010000000000000000000000000000B70100082F
:100110000000000000000000B7010008000000001F
:1001200000000000000000000000000000000000CF
:1001300000000000000000000000000000000000BF
:10014000B7010008B701000800000000000000002F
:10015000000000000000000000000000000000009F
:10016000B7010008B7010008B7010008B70100088F
:10017000B7010008000000000000000000000000BF
:1001800000000000B7010008DFF80CD000F03AFAD8
:1001900000480047D9350008480500200648804738
:1001A00006480047FEE7FEE7FEE7FEE7FEE7FEE75C
:1001B000FEE7FEE7FEE7FEE7C52500088901000827
:1001C000202A04DB203A21FA02F00021704721FAAC
:1001D00002F3D040C2F12002914008431946704713
:1001E000D2B201E000F8012B491EFBD27047002279
:1001F000F6E710B513460A4604461946FFF7F0FF26
:10020000204610BD30B50B460146002020220124B7
:1002100009E021FA02F59D4205D303FA02F5491BD4
:1002200004FA02F52844151EA2F10102F1DC30BDEA
:100230002DE9F05F0546002092469B46884606461B
:10024000814640241BE02846414647462246FFF7A8
:10025000B7FF53465A46C01A914110D3114618466B
:10026000224600F0E1F92D1A67EB01084F462246BD
:100270000120002100F0D8F917EB00094E41201EA3
:10028000A4F10104DFDC484631462A464346BDE876
:10029000F09F2DE9FE4F804681EA0300C00F0C4617
:1002A000009021F0004123F00045B8EB0200A94185
:1002B00005D24046214690461C460B46024623F096
:1002C0000040104347D0270DC7F30A00C3F30A517B
:1002D0000290401A019040286BDAC3F3130040F4F7
:1002E000801B0098924620B10023D2EB030A63EBF7
:1002F0000B0B01985946C0F14002504600F094F9AA
:1003000006460D4650465946019A00F09CF910EBFE
:1003100008006141002487EA115284EAE7731A4316
:1003200040D0009A62B3019A012A4FEA075215DCC5
:10033000001B61EB02014FF0004202EA0752CDE9D7
:100340000042001C41F5801132462B4600F09CF91A
:1003500003B0BDE8F08F40462146F9E7001B61EB92
:100360000201001C41F5801300185B412018A2F522
:10037000001747EB030140EAD570B6196D4111E053
:100380006D084FEA360645EAC0754FEA0752001B72
:1003900061EB0201001C41F5801149084FEA300071
:1003A0000019514132462B4603B0BDE8F04F00F032
:1003B0005CB90098012240000023D0EB020263EBFD
:1003C000E073009821464FEAE074B8EB000061EB5F
:1003D0000401E9E783F000435BE781F0004158E75F
:1003E0002DE9FE4F81EA030404F0004421F00041AE
:1003F00000944FF0000B23F0004350EA01045ED05C
:1004000052EA03045BD0C3F30A54C1F30A552C44E7
:10041000A4F2F3340194A0FB0254C1F3130141F49C
:100420008011C3F3130343F4801301FB024400FB68
:10043000034E840A970A44EA815447EA8357A4FB8F
:10044000076802958D0A05FB07854FEA932C04FB8C
:100450000C542705029D4FEA065847EA1637B5EBBC
:1004600008056EEB070C870E920E47EA811742EAE9
:100470008312A7FB0201B6EB0B0164EB00042B0D0A
:1004800043EA0C335E1844EB1C50DA465146E7FB56
:100490000201C5F313044FEA0B3343EA14534FEA46
:1004A0000432019C43EA0603A4F10C040294009C6C
:1004B000CDE900B400F0E8F803B0BDE8F08F00200B
:1004C0000146F9E72DE9F04D81EA030404F0004B01
:1004D00021F0004514464FF0000A23F0004150EA95
:1004E000050220D054EA01021DD0C5F30A57024686
:1004F000C5F31303C1F31300C1F30A5640F480158A
:1005000043F48013A7EB0608101BD64608F2FD380B
:1005100073EB050002D308F1010801E092185B417A
:10052000B8F1000F03DA00200146BDE8F08D00208D
:100530004FF48011064684460EE0171B73EB050747
:1005400005D3121B63EB050306434CEA010C490873
:100550004FEA300092185B4150EA0107EDD152EAB0
:10056000030012D082EA040083EA0501084305D0A3
:10057000101BAB4106D20122002306E000224FF0FF
:10058000004302E06FF0010253101AEB06004CEB3F
:10059000085110EB0A0041EB0B01BDE8F04D00F0F3
:1005A00064B8C1F30A52C1F3130140F2FF3341F4BE
:1005B00080119A4202DA00200146704740F233432C
:1005C0009A42A2F2334202DC5242FFF7F9BD00F038
:1005D0002BB8000030B5041E71F1000404DB4FF0AD
:1005E0000044404264EB0101141E73F1000405DB7A
:1005F0001C464FF00043524263EB0403994208BF8C
:10060000904230BD064C074D06E0E06840F0010323
:1006100094E8070098471034AC42F6D3FFF7B8FDD2
:10062000EC3600080C370008202A04DB203A00FAD8
:1006300002F1002070479140C2F1200320FA03F339
:10064000194390407047202A06DBCB17203A41FA25
:1006500002F043EAE07306E041FA02F3D040C2F14F
:100660002002914008431946704710B5141E73F1DB
:10067000000408DA401C41F1000192185B411A4362
:1006800001D120F0010010BD2DE9F04D92469B46AE
:1006900011B1B1FA81F202E0B0FA80F22032904654
:1006A000FFF7C2FF04460F4640EA0A0041EA0B0189
:1006B00053465A46084313D0114653EA010019D055
:1006C000C8F140025046FFF77BFD05460E465046F6
:1006D00059464246FFF7A8FF084305D0012004E031
:1006E00020463946BDE8F08D0020054346EAE07615
:1006F0002C4337430A986305E40AA0EB0800002264
:10070000FD0A44EA47540A3002D500200146E9E7D1
:10071000010510196941DDE9084500196941BDE885
:10072000F04DA2E770B504460068816801F003014E
:10073000012926D10168C90723D0816801F00D0184
:10074000012910D1816841F00201816021680320F4
:10075000086000F06FFC05460FE000BF00F06AFC87
:10076000401B022809D9606C40F010006064A06C46
:1007700040F00100A064012070BD20688068C007BF
:10078000ECD1002070BD000070B50446006881689F
:1007900001F00301012902D10168C90720D1816854
:1007A000104A11420DD1816841F00101816000F0D1
:1007B00041FC05460FE000BF00F03CFC401B022856
:1007C00009D9606C40F010006064A06C40F001003A
:1007D000A064012070BD20680068C043C007EBD151
:1007E000002070BD3F000080FEE77047F0B595B077
:1007F0000025009590F840202E46012A19D00127A7
:1008000080F8407003689A6852077DD44A681F24B4
:10081000052A11D2D3F830C002EB420252009440B4
:100820002CEA040C0C6894404CEA040CC3F830C069
:1008300035E0022015B0F0BD0A2A0FD2D3F834C03B
:10084000521F02EB4202520094402CEA040C0C6846
:1008500094404CEA040CC3F834C020E00F2A0FD2B5
:10086000D3F838C00A3A02EB4202520094402CEA14
:10087000040C0C6894404CEA040CC3F838C00EE039
:10088000D3F83CC00F3A02EB4202520094402CEAEB
:10089000040C0C6894404CEA040CC3F83CC0026899
:1008A000936813F00C0F4FF0070373D10C680A2CF8
:1008B00011D3D2F818C00A3C04EB440403FA04FE36
:1008C0002CEA0E0CD1F808E00EFA04FE4CEA0E0CED
:1008D000C2F818C00FE0D2F814C004EB440403FAC5
:1008E00004FE2CEA0E0CD1F808E00EFA04FE4CEAE5
:1008F0000E0CC2F814C002684C69D2F80CC0CCF3DC
:10090000C10C4FEA4C0C00E0CDE004FA0CF4D1F835
:1009100010E0DFF8F4C1BEF1010F42D0BEF1020FCA
:100920004DD0BEF1030F58D0BEF1040F63D0146E4A
:1009300091F800C004F0F844B4EB8C6F03D1146E4E
:1009400024F0004414660268546E91F800C004F06C
:10095000F844B4EB8C6F03D1546E24F00044546619
:100960000268946E91F800C004F0F844B4EB8C6F08
:1009700003D1946E24F0004494660268D46E91F81A
:1009800000C004F0F844B4EB8C6F03D1D46E24F0B3
:100990000044D4660268946804F00304012C3AD140
:1009A00036E0D2F860E00EEA0C0E91F800C044EA9E
:1009B0008C644EEA040E4EF000441466EAE7D2F866
:1009C00064E00EEA0C0E91F800C044EA8C644EEA32
:1009D000040E4EF000445466DCE7D2F868E00EEAFC
:1009E0000C0E91F800C044EA8C644EEA040E4EF0FE
:1009F00000449466CEE7D2F86CE00EEA0C0E91F853
:100A000000C044EA8C644EEA040E4EF00044C0E795
:100A10001468E4074CD1CC68012C06D052F8B03FE2
:100A20000C78A740BB43136020E052F8B04F91F818
:100A300000C007FA0CF73C4314600A6804680A2AED
:100A40000AD3A769093A02EB420293409F438B689D
:100A500093401F43A76109E06769521C02EB420201
:100A600093409F438B6893401F4367610968274AFF
:100A7000102904D0112905D0122906D018E0936856
:100A80001B0204E09368DB0101E093685B02002B2A
:100A90000EDB009603689C6804F00304012C0BD164
:100AA0001C68E40708D0416C41F020014164012535
:100AB00080F840602846BDE64FF0A044102908D0D9
:100AC00011291AD01229F3D1916841F48001916063
:100AD000EEE7A342ECD1916841F4000191600C492A
:100AE0000C4A0968B1FBF2F101EB8101490000E019
:100AF000491E00910029FBD1DAE7A342D8D19168C1
:100B000041F08071E3E7000000F0FF830003005034
:100B10003C00002040420F000068006C704700005D
:100B2000F0B54FF0000695B0040037463546009604
:100B300005D0606CC00648D4606C18B133E0012069
:100B400015B0F0BDA5642565E56484F840502046E5
:100B500000F0C4F820688068C00024D42046FFF765
:100B6000E1FD0646606CC0061DD4E6B9606C20F459
:100B7000885040F0020060642068816821F0405194
:100B800081602068816841F0805181604E484F4902
:100B90000068B0FBF1F000EB8000400000E0401E78
:100BA00000900028FBD120688168C90002D58068C8
:100BB00080000AD5606C20F0020040F010006064F4
:100BC000A06C40F00100A0640126606CC00671D4E6
:100BD000002E6FD12168886840076BD4606C20F4C8
:100BE000807040F002006064009539488A6802F025
:100BF0000302012A02D10968C90705D18168626828
:100C000021F4403111438160D4E902100843A16B03
:100C1000012902D04FF4805200E00022E16942EA4B
:100C200041321043626A3843012A0AD1A9B1616C8A
:100C300021F0020141F020016164A16C41F0010149
:100C4000A164E16A012902D0226B114308432168A3
:100C50008A6812F00C0F08D012E0218D1D4A02EBB9
:100C60004141014341F48030EBE7CA6844F202039A
:100C70009A43CA60A169626B890341EA4201084351
:100C80002168CA68144B1A400243CA6020690128CF
:100C90002068016B21F00F0102D1226A521E11431C
:100CA0000163A564606C20F0020040F00100606404
:100CB00007E0FFE7606C20F0020040F01000606485
:100CC000012630463CE700003C00002040420F0077
:100CD000000300500000FEFF07C0F0FF10B586B013
:100CE000044614216846FFF782FA2068B0F1A04F4D
:100CF0001BD10F48416941F080514161416901F0C8
:100D000080510591416941F4003141614069694672
:100D100000F4003005900120009003200190002095
:100D200002904FF0904000F0BFF806B010BD0000F8
:100D3000001002402DE9F047044640690D464FF08F
:100D40000008082810D02E488168C9060ED0806897
:100D500000F4404070B1606C40F02000606484F8A2
:100D600040800120BDE8F087082604E02068C068C4
:100D7000C007EFE70C262068C76800F05BF98146E2
:100D800010E0681C0ED02DB100F054F9A0EB090062
:100D9000A84207D9606C40F00400606484F8408089
:100DA0000320DFE7206800683042EAD0606C40F43E
:100DB000007060642068C16811F4406F1AD1B904F2
:100DC00018D40168090715D581684907616C0AD4F0
:100DD00021F480716164616CC9040BD4616C41F0D1
:100DE0000101616406E041F020016164A16C41F001
:100DF0000101A164790400D406600020B2E700007C
:100E00000003005010B5044600688068400736D4DF
:100E100094F84000012832D0012084F84000204698
:100E2000FFF7B2FC002110B184F8401010BD626CD5
:100E300040F601639A4342F480726264626C22F469
:100E4000801262642268D3689B0105D5636C23F429
:100E5000005343F480536364636CDB0404D5A36CD8
:100E600023F00603A36400E0A16484F840101C2171
:100E7000116021688A6842F004028A6010BD022075
:100E800010BD000070B5044600F0D4F80546601CA3
:100E900002D004480078044400F0CCF8401BA04283
:100EA000FAD370BD300000202DE9F84FDFF860B1B3
:100EB00000234FF0010C4FF0030A4FF00F090BF124
:100EC000040E9DE00CFA03F6344022007ED04C68FC
:100ED000022C01D0122C0ED1DC0800EB8408D8F8CB
:100EE00020405D07EF0E09FA07F5AC430D69BD40E0
:100EF0002543C8F8205007685D0091F804800AFA7D
:100F000005F408F00308A74308FA05F848EA0708BB
:100F1000C0F800804F68012F05D0022F03D0112F99
:100F200001D0122F11D18768D1F80C80A74308FA9D
:100F300005F848EA0708C0F808804768B7430E7903
:100F4000C6F300169E403E434660C668A6438C68C2
:100F5000AC403443C4604C68E40050D52D4CA569C6
:100F600045F00105A561A46923F0030504F001041F
:100F70000094294C2E19B4689D072F0F09FA07F524
:100F8000AC43B0F1904F04D0244DA84203D10125C9
:100F90000CE000250AE0224DA84201D1022505E01F
:100FA000204DA84201D1032500E00525BD40254381
:100FB000B560DBF800405D464E689443F60300D50B
:100FC00014432C607546DEF8004000E017E04E68E0
:100FD0009443B60300D514432C600D4D08352C689E
:100FE0004E689443F60200D514432C60084D0C352E
:100FF0002C684E689443B60200D514432C605B1CE9
:101000000A681446DA407FF45DAFBDE8F88F00004F
:1010100000040140001002400000014000040048AC
:1010200000080048000C00480AB1816170478162E5
:1010300070470000014880687047000030000020C1
:1010400002488168027811448160704730000020B6
:10105000074810B5016841F010010160032000F05D
:101060006DF8002000F006F800F024F8002010BD14
:101070000020024070B50D4D04464FF47A71287877
:10108000B1FBF0F00A490968B1FBF0F000F02EFD69
:1010900048B9102C07D200222146501E00F02EF82D
:1010A00000206C6070BD012070BD00003000002089
:1010B0003C0000200A4882B0816941F00101816151
:1010C000816901F001010091C16941F08051C16164
:1010D000C06900F080500090072002B000F02EB8E8
:1010E0000010024000F01F020121914040098000E1
:1010F00000F1E020C0F8001170470000F0B40E4B82
:101100001B680C46C3F30223C3F10705042D00D965
:101110000425191D072901D2002300E0DB1E01264A
:1011200006FA05F1491E214099409E40761E164060
:101130003143F0BC01F000BA0CED00E0064900F0CC
:10114000070208684FF6FF03184040EA0220034AEE
:1011500010430860704700000CED00E00000FA0545
:101160002DE9F84F05460068774CC0036FD5E0695C
:101170000026C00008D4E06940F08050E061E069DA
:10118000012600F08050009070480168C90512D413
:101190000168804641F480710160FFF74BFF07460C
:1011A00005E000BFFFF746FFC01B642835D8D8F81C
:1011B0000000C005F6D5206A10F4407053D0A9880D
:1011C00001F4407181424ED0206A4FF4803191FA8F
:1011D000A1F2B2FA82F297005D4A4FF0010817447B
:1011E00020F44070C7F8008491FAA1F1B1FA81F1BE
:1011F00002EB81010023C1F800342062C00732D025
:10120000FFF718FF074641F2883A4FF0020907E05E
:10121000FFF710FFC11B514502D90320BDE8F88F2D
:1012200099FAA9F1B1FA81F141F040014846B8EBD1
:10123000511F01D121680CE090FAA0F1B1FA81F1BF
:1012400041F04001B0EB511F02D1216A01E015E0ED
:10125000616A99FAA9F0B0FA80F000F01F0008FA6C
:1012600000F21142D4D0206A696820F4407008432B
:1012700020621EB1E06920F08050E0612878C0074C
:1012800005D0206BA96820F003000843206328786C
:10129000800605D5206BE96820F010000843206324
:1012A0002868800305D56068296B20F48000084316
:1012B00060602878400605D5206B296920F0200061
:1012C000084320632888000405D5206B696920F055
:1012D0004000084320632888800505D56068E969D7
:1012E00020F40000084360602878000605D5E06A15
:1012F000A96920F4F8700843E0622888C00405D585
:10130000206B296A20F4807008432063286840031A
:1013100005D5206B696A20F4806008432063286843
:10132000000305D5206BA96A20F400600843206300
:101330002868C00205D5206BE96A20F400500843F4
:10134000206300206AE700000010024000700040A7
:10135000000042422DE9F0470F46050069D04A4E91
:10136000306800F00700B84209D2306820F007006A
:1013700038433060306800F00700B84259D128780F
:10138000424C800705D56068A96820F0F00008434A
:1013900060602878C0073DD06968012001290DD020
:1013A000022923D05FF0020393FAA3F2B2FA82F289
:1013B00042F02002520904D0226803E04FF40033C7
:1013C000F2E7626A93FAA3F3B3FA83F303F01F031D
:1013D000984002422DD0606820F00300084360600E
:1013E000FFF728FE804641F288390CE04FF0007389
:1013F000DAE700BFFFF71EFEA0EB0801494502D95E
:101400000320BDE8F0876068696800F00C00B0EB6D
:10141000810FEFD1306800F00700B8420BD9306877
:1014200020F0070038433060306800F00700B84211
:1014300001D00120E5E72878400705D56068E96814
:1014400020F4E060084360602878000706D56068F3
:10145000296920F4605040EAC100606000F04CF857
:101460006168F02292FAA2F201F0F001B2FA82F27F
:10147000D140074A515CC840064908600020FFF788
:10148000F9FD0020BDE700000020024000100240EE
:10149000D43600083C000020084809490068496823
:1014A0004FF4E06292FAA2F201F4E061B2FA82F241
:1014B000D140044A515CC840704700003C00002005
:1014C00000100240E43600080848094900684968ED
:1014D0004FF4605292FAA2F201F46051B2FA82F231
:1014E000D140044A515CC840704700003C000020D5
:1014F00000100240E4360008144B10B55A68144836
:1015000002F00C0104291DD008291BD14FF47014DE
:1015100094FAA4F402F47011B4FA84F4E1400D4C8E
:10152000DB6A615C0F2494FAA4F403F00F03B4FAAD
:1015300084F4E340074C1034D203E35C03D5B0FBE2
:10154000F3F0484310BD0448484310BD001002406A
:1015500000127A00B436000800093D002DE9F84F6A
:10156000040071D02078FB4DC0074FF0010625D054
:1015700068687704C0F38100012807D06868C0F369
:10158000810002281BD16868C00318D597FAA7F01C
:10159000B0FA80F040F02000400901D0286800E057
:1015A000686A97FAA7F1B1FA81F101F01F0106FA12
:1015B00001F1084265D060680028D2D061E060681F
:1015C000B0F5803F0BD010B1B0F5A02F17D0286830
:1015D00020F480302860286820F4802002E0286809
:1015E00040F480302860E86AA16820F00F000843CA
:1015F000E862606820B3FFF71DFD80460AE02868B6
:1016000040F480202860EAE7FFF714FDA0EB080013
:10161000642872D897FAA7F0B0FA80F040F0200062
:10162000400901D0286800E0686A97FAA7F1B1FA8A
:1016300081F101F01F0106FA01F10842E4D020E037
:10164000FFF7F8FC804607E0C7E000BFFFF7F2FCB9
:10165000A0EB08006428DCD897FAA7F0B0FA80F075
:1016600040F02000400901D0286800E0686A97FA3D
:10167000A7F1B1FA81F101F01F0106FA01F1084268
:10168000E4D12078DFF8D08280074FF0000A4FF0D5
:10169000020759D568684FF0F80B10F00C0F07D00F
:1016A0006868C0F3810002281BD16868C00318D4A1
:1016B00097FAA7F0B0FA80F040F02000400901D07E
:1016C000286800E0686A97FAA7F1B1FA81F101F0A1
:1016D0001F0106FA01F108422BD0206901287CD1B4
:1016E00027E0206988B396FAA6F0B0FA80F048F8AF
:1016F0002060FFF79FFC814606E055E1FFF79AFC6A
:10170000A0EB0900022884D897FAA7F0B0FA80F07D
:1017100040F02000400901D0286800E0686A97FA8C
:10172000A7F1B1FA81F101F01F0106FA01F10842B7
:10173000E4D028689BFAABF26169B2FA82F220F039
:10174000F80091400843286025E0FFE796FAA6F1EB
:10175000B1FA81F148F821A0FFF76CFC814605E061
:10176000FFF768FCA0EB09000228CCD897FAA7F095
:10177000B0FA80F040F02000400901D0286800E075
:10178000686A97FAA7F1B1FA81F101F01F0106FA30
:1017900001F10842E4D1207800076AD5A069A0B31E
:1017A00096FAA6F0B0FA80F008EB8000C0F88064EA
:1017B000FFF740FC814605E0FFF73CFCA0EB090089
:1017C0000228A0D897FAA7F0B0FA80F040F06000A5
:1017D000B6EB501F02D128680CE077E197FAA7F02A
:1017E000B0FA80F040F06000B7EB501F01D1286ADA
:1017F00000E0686A97FAA7F1B1FA81F101F01F01E0
:1018000006FA01F21042D7D033E0FFE796FAA6F0CD
:10181000B0FA80F008EB8000C0F880A4FFF70AFC63
:10182000814605E0FFF706FCA0EB090002289CD8E2
:1018300097FAA7F0B0FA80F040F06000B6EB501FC6
:1018400001D128680BE097FAA7F0B0FA80F040F0D9
:101850006000B7EB501F01D1286A00E0686A97FA70
:10186000A7F1B1FA81F101F01F0106FA01F210426D
:10187000D8D12078400774D5E8694FF00009C0003E
:1018800009D4E86940F08050E861E8694FF0010947
:1018900000F08050009031480168C90512D40168F9
:1018A00041F480710160FFF7C5FB834606E000BF8D
:1018B000FFF7C0FBA0EB0B00642875D82748006831
:1018C000C005F5D5E06801280AD008B1052811D077
:1018D000286A20F001002862286A20F0040002E053
:1018E000286A40F001002862E068C8B3FFF7A2FB55
:1018F00083460DE0286A40F004002862F0E700BF4C
:10190000FFF798FBA0EB0B0141F2883081424BD8E6
:1019100097FAA7F0B0FA80F040F04000B6EB501F05
:1019200001D128680BE097FAA7F0B0FA80F040F0F8
:101930004000B7EB501F01D1286A00E0686A97FAAF
:10194000A7F1B1FA81F101F01F0106FA01F210428C
:10195000D6D035E000100240000042420070004046
:1019600000E034E0FFF766FB834607E0FFF762FB29
:10197000A0EB0B0141F28830814215D897FAA7F00D
:10198000B0FA80F040F04000B6EB501F01D128685B
:101990000CE097FAA7F0B0FA80F040F04000B7EB07
:1019A000501F02D1286A01E083E0686A97FAA7F124
:1019B000B1FA81F101F01F0106FA01F21042D5D10E
:1019C000B9F1000F03D0E86920F08050E861E069C8
:1019D00080B36968C1F38101022977D04FF080712B
:1019E0004F00022809D091FAA1F0B0FA80F048F82F
:1019F00020A0FFF71FFB04465EE050468A4691FA9E
:101A0000A1F1B1FA81F1C14648F82100FFF712FBBC
:101A1000804605E0FFF70EFBA0EB0800022848D83F
:101A200097FAA7F0B0FA80F040F02000400902D009
:101A3000286801E056E0686A97FAA7F1B1FA81F1E7
:101A400001F01F0106FA01F10842E3D1D4E90810C0
:101A50000843696821F47411084368609AFAAAF08F
:101A6000B0FA80F049F82060FFF7E4FA044604E099
:101A7000FFF7E0FA001B02281BD897FAA7F0B0FA8C
:101A800080F040F02000400901D0286800E0686A3A
:101A900097FAA7F1B1FA81F101F01F0106FA01F1FD
:101AA0000842E5D01EE000BFFFF7C4FA001B022881
:101AB00002D90320BDE8F88F97FAA7F0B0FA80F0BA
:101AC00040F02000400902D0286801E00CE0686A7C
:101AD00097FAA7F1B1FA81F101F01F0106FA01F1BD
:101AE0000842E1D10020E5E70120E3E710B5401E00
:101AF000B0F1807F01D3012010BD4FF0E024606180
:101B00000F21601700F018FD0020A0610720206160
:101B1000002010BD704770477047000030B590F846
:101B20003C20012A1CD0012280F83C2003685A681E
:101B30009C680C4DAB4203D122F470054A682A43DD
:101B400022F070050A6889682A4324F08004214342
:101B50005A6002689160002180F83C10084630BD50
:101B6000022030BD002C014010B5040003D094F8D1
:101B70003D0010B107E0012010BD002084F83C00BA
:101B8000204600F00DF8022084F83D00211D206859
:101B900000F052FD012084F83D00002010BD00003F
:101BA00008B50068B0F1804F12D10A48C16941F010
:101BB0000101C161C069002200F0010000901146DE
:101BC0001C20FFF79BFABDE808401C20FFF78ABAEB
:101BD00008BD00000010024070B5044690F83C00BB
:101BE000012817D0012584F83C50022084F83D00DC
:101BF00022689068364E304020F47F40906008683C
:101C0000502839D00DDC20285BD005DC98B3102893
:101C100043D153E0022070BD302855D040283CD13C
:101C200041E0602830D070280CD0B0F5805F03D040
:101C3000B0F5005F31D112E020688168244A70322B
:101C4000114016E0CB68D1E90121206800F03BFD8E
:101C500021688868304040F0770088601DE0CB68DC
:101C6000D1E90121206800F02EFD2068816841F44F
:101C70008041816011E01EE0CA684968206800F078
:101C800095FE5021206806E0CA684968206800F087
:101C90009EFE6021206800F020FD84F83D50002069
:101CA00084F83C0070BDCA684968206800F07EFE78
:101CB00040212068EFE700212068ECE71021206830
:101CC000E9E720212068E6E730212068E3E700000B
:101CD00088FFFEFF704770B50446006801694FF049
:101CE0000005C943890715D4C168C943890711D4C0
:101CF000E91E016101202077206880698007204665
:101D000002D0FFF7E7FF04E000F0CEF8204600F035
:101D10007CF9257720680169C943490717D4C16850
:101D2000C943490713D46FF00401016102202077F1
:101D30002068806910F4407F204602D0FFF7CAFF78
:101D400004E000F0B1F8204600F05FF92577206844
:101D50000169C943090716D4C168C943090712D4E8
:101D60006FF008010161042020772068C0698007B6
:101D7000204602D0FFF7AEFF04E000F095F82046C1
:101D800000F043F9257720680169C943C90617D4D3
:101D9000C168C943C90613D46FF01001016108205E
:101DA00020772068C06910F4407F204602D0FFF7FA
:101DB00091FF04E000F078F8204600F026F925773E
:101DC00020680169C943C90708D1C168C943C90767
:101DD00004D1891E0161204600F03EF920680169A6
:101DE000C943090609D4C168C943090605D46FF07F
:101DF000800101612046FFF78EFE20680169C9431A
:101E0000C90509D4C168C943090605D46FF48071B6
:101E100001612046FFF77EFE20680169C94349063B
:101E200009D4C168C943490605D46FF04001016176
:101E3000204600F012F920680169C94389060BD4D5
:101E4000C168C943890607D46FF0200101612046AB
:101E5000BDE87040FFF760BE70BD000010B586B0F1
:101E6000044614216846FEF7C2F92068B0F1804F9D
:101E700016D10C48416941F400314161406969461D
:101E800000F40030059020200090022001900020F6
:101E900002900390012004904FF09040FFF704F867
:101EA00006B010BD00100240704770B5044690F8AF
:101EB0003C000D4601280ED0012684F83C6002202B
:101EC00084F83D000C2A45D007DC5AB1042A1BD007
:101ED000082A78D12CE0022070BD102A4ED0142A96
:101EE00071D15DE0206800F001FC2068816941F05B
:101EF000080181612068816921F004018161206805
:101F000081692A69114311E0206800F033FC2068E0
:101F1000816941F4006181612068816921F48061F7
:101F20008161206881692A6941EA022181614AE070
:101F3000206800F05FFC2068C16941F00801C161C0
:101F40002068C16921F00401C1612068C1692A6962
:101F5000114311E0206800F08DFC2068C16941F454
:101F60000061C1612068C16921F48061C16120689C
:101F7000C1692A6941EA0221C16124E0206800F0B8
:101F8000AFFC2068416D41F0080141652068416D5A
:101F900021F0040141652068416D2A69114311E077
:101FA000206800F0CFFC2068416D41F4006141657C
:101FB0002068416D21F4806141652068416D2A6986
:101FC00041EA0221416584F83D60002084F83C002C
:101FD00070BD10B5040003D094F83D0010B107E0C7
:101FE000012010BD002084F83C00204600F00CF8D1
:101FF000022084F83D00211D206800F01DFB012017
:1020000084F83D00002010BD7047704710B50446AD
:102010000068012200F04CFB0B482168814208D087
:102020000A48814205D00A48814202D009488142CB
:1020300003D1486C40F4004048642068016841F0D6
:1020400001010160002010BD002C01400040014052
:1020500000440140004801407047704710B504003B
:1020600003D094F8690010B107E0012010BD0020F2
:1020700084F86800204600F027F8242084F86900DE
:102080002068016821F001010160204600F044FD54
:102090000128EBD0606A10B1204600F0AAFC20684D
:1020A000416821F4904141602068816821F02A0153
:1020B00081602068016841F0010101602046BDE8AF
:1020C000104000F0FABC000010B586B004461421A0
:1020D0006846FEF78CF81249206888421ED11148E4
:1020E000C16941F40031C161C16901F40031059158
:1020F000416941F4003141614069694600F40030B2
:1021000005900C2000900220019000200290039086
:10211000072004904FF09040FEF7C6FE06B010BDB9
:102120000044004000100240FEE70121084600F094
:1021300085B80121022000F081B800002DE9F05F90
:102140000AAC94E8E05F1D4CA061A180E280E361ED
:1021500025816681A781A4F80E80C4F82090A4F898
:1021600010A0A4F812B0A4F814C0A4F816E001203E
:1021700020703820A0701420FEF784FE302000F07C
:10218000DDF80520FEF77EFE302000F0D7F80120B4
:10219000FEF778FE302000F0D1F80120FEF772FE45
:1021A000382000F0CBF80F2000F0C8F8012000F034
:1021B000C5F8BDE8F05F0220FEF764BE0C00002009
:1021C00010B5094C0122E188A069FEF72DFF6420BB
:1021D00001F0FEF90022E188A069FEF725FFBDE8C5
:1021E0001040642001F0F4B90C0000201FB5024635
:1021F00003A1684600F06AFD684600F00DF81FBDB7
:1022000025640000020003488188806900D0012213
:10221000FEF70ABF0C00002070B50646002409E056
:102220000120FFF7EFFF284600F016F8641CE4B227
:10223000102C02D2355D002DF2D170BD491E01F087
:102240000F01012804D041F0C00000BF00F076B8B3
:1022500041F08000FAE700002DE9F84F0209364C02
:1022600002F0080302F0040B217802F0020902F0E8
:10227000010700F0080A00F0040600F0020500F073
:102280000108009301292FD0022952D13A46218A10
:10229000206AFEF7C9FE4A46618A206AFEF7C4FE3C
:1022A0005A46A18A206AFEF7BFFEE18A009A206A98
:1022B000FEF7BAFEFFF784FF4246218A206AFEF746
:1022C000B3FE2A46618A206AFEF7AEFE3246A18A34
:1022D000206AFEF7A9FE5246E18A206AFEF7A4FEB4
:1022E000BDE8F84FFFF76CBF42462189E069FEF771
:1022F0009BFE2A466189E069FEF796FE3246A18977
:10230000E069FEF791FE5246E189E069FEF78CFE36
:102310003A46218A206AFEF787FE4A46618A206A89
:10232000FEF782FE5A46A18A206AFEF77DFE009AD9
:10233000D2E7BDE8F88F00000C00002010B504467D
:102340000020FFF75FFF2046BDE81040FFF784BF85
:1023500030B587B018216846FDF749FF11484FF0A6
:10236000A0410024C0E900140461C4610125446255
:10237000C0E90B5418210562C0E90214042144632A
:10238000C0E905148463FEF7CBFB00950394CDE907
:1023900001540494694603480594FEF727FA07B0F0
:1023A00030BD0000400000202DE9F04786B0142128
:1023B0006846FDF71CFF3148416941F40021416145
:1023C000416901F400210591416941F480014161B5
:1023D000416901F480010591416941F40031416195
:1023E000416901F400310591416941F48021416165
:1023F0004069DFF88C8000F480204FF40C55059084
:10240000002229464046FEF70FFEDFF878904FF491
:102410007076002231464846FEF706FEB7004FF0C0
:10242000904A002239465046FEF7FEFD4FF4005018
:10243000009015480024CDE9010469464846FEF79E
:1024400033FD00950125CDE90154694640460394CA
:10245000FEF72AFD0096CDE90154694648460394EB
:10246000FEF722FD0097CDE90154694650460394DA
:10247000FEF71AFD06B0BDE8F0870000001002402C
:1024800000040048000800480000211010B58EB07C
:1024900000240794089409940A940B940C941C212A
:1024A00068460D94FDF7A3FE16484FF08041016089
:1024B00040F2FF41C0E9011440F2E731C0E90314E2
:1024C0008461FFF751FB4FF48050079007A90D4836
:1024D000FFF782FB0B48FFF77CFD0B940BA9094823
:1024E0000D94FFF71BFB6020CDE90004029400224D
:1024F000694604480494FFF7D8FC0248FFF7AEFC95
:102500000EB010BD940000200948084901604FF446
:1025100016414160002181600C22C160C0E90412B3
:102520008161C16101624162FFF798BD00440040D2
:10253000D4000020FEE770470907090E002806DADC
:1025400000F00F0000F1E02080F8141D704700F14A
:10255000E02080F80014704770477047FEF770BDA8
:1025600010B59CB028216846FDF741FE142117A83C
:10257000FDF73DFE34210AA8FDF739FE01200104D4
:102580000290CDE9000104904FF46010CDE90810ED
:10259000022407946846FEF7E1FF0F20CDE91704F7
:1025A00000206102CDE919011B90022117A8FEF756
:1025B000D1FE80200A90400010900AA8FEF7D0FDBE
:1025C0001CB010BD1448016841F47001016013484B
:1025D000016841F0010101604168114A1140416008
:1025E0000168104A11400160016821F480210160F6
:1025F000416821F4FE014160C16A21F00F01C1620E
:10260000016B094A11400163002181600249C00346
:10261000803908607047000088ED00E0001002403B
:102620000CC07FF8FFFFF6FECCFC00FF0148FFF76F
:1026300052BB000094000020F0B50268184B4FF028
:102640008047984201D0B84203D122F070044A6812
:102650002243144C144D154E984207D0B84205D071
:10266000A04203D0A84201D0B04203D122F4407767
:10267000CA683A434F6922F080023A4302608A688E
:10268000C2620A688262984205D0A04203D0A84282
:1026900001D0B04201D10969016301214161F0BD5E
:1026A000002C01400040014000440140004801402E
:1026B00010B50123046A8B409C430462036A8A407C
:1026C0001343036210BD10B5846842EA032224F468
:1026D0007F440A432243826010BD826822F0700268
:1026E0000A4342F00701816070470000F0B5026ABA
:1026F00022F001020262056A43688269184C25F0E3
:10270000020522400C6822F0030214438A68164E28
:102710002A43144D154FDFF858C0A84205D0B042E7
:1027200003D0B84201D0604506D122F0080ECA6835
:1027300042EA0E0222F00402A84205D0B04203D0C1
:10274000B84201D0604505D14D6923F440731D4363
:102750008B692B4343608461496841630262F0BD29
:102760008FFFFEFF002C014000400140004401406B
:102770000048014030B5026A22F010020262046A89
:1027800042688369164D2B400D6823F4407343EA79
:10279000052524F020038C6843EA0413114CA04261
:1027A00007D1CC6823F0800343EA041323F04003ED
:1027B00008E00D4CA04205D00C4CA04202D00C4CBD
:1027C000A04207D14C6922F4406242EA84028C693B
:1027D00042EA84024260856149688163036230BDD8
:1027E000FF8FFFFE002C01400040014000440140EB
:1027F0000048014030B5026A22F480720262046A25
:102800004268C369164D2B400D6823F003031D4336
:1028100024F400738C6843EA0423124CA04207D1CD
:10282000CC6823F4006343EA042323F4806308E0C4
:102830000D4CA04205D00D4CA04202D00C4CA04241
:1028400007D14C6922F4405242EA04128C6942EAF0
:1028500004124260C5614968C163036230BD000073
:102860008FFFFEFF002C014000400140004401406A
:102870000048014030B5026A22F480520262046AC4
:102880004268C369114D24F400542B400D6823F4B1
:10289000407343EA05238D6844EA05340C4DA84291
:1028A00008D00C4DA84205D00B4DA84202D00B4DCC
:1028B000A84204D14D6922F4804242EA8512426066
:1028C000C36149680164046230BD0000FF8FFFFEF0
:1028D000002C0140004001400044014000480140FC
:1028E00030B5026A22F480320262046A4268436DA3
:1028F0000F4D2B400D681D4324F400330C8943EA2F
:1029000004430C4CA04208D00B4CA04205D00B4C09
:10291000A04202D00A4CA04204D14C6922F4803279
:1029200042EA04224260456549688165036230BD20
:102930008FFFFEFF002C0140004001400044014099
:102940000048014030B5026A22F480120262046A33
:102950004268436D104D24F400142B400D6843EA87
:1029600005230D8944EA05540C4DA84208D00C4DAE
:10297000A84205D00B4DA84202D00B4DA84204D16D
:102980004D6922F4802242EA85224260436549680B
:10299000C165046230BD0000FF8FFFFE002C0140C6
:1029A00000400140004401400048014010B5036A66
:1029B000046A24F001040462846924F0F00444EA07
:1029C000021423F00A020A438461026210BD10B5AA
:1029D000036A23F0100303628369046A23F47043DB
:1029E00043EA023224F0A00343EA0111826101624A
:1029F00010BD90F82410C90706D001684A68836AA0
:102A000022F400321A434A6090F82410890706D550
:102A100001684A68C36A22F480321A434A6090F817
:102A20002410490706D501684A68036B22F4802206
:102A30001A434A6090F82410090706D501684A68CD
:102A4000436B22F400421A434A6090F82410C906EE
:102A500006D501688A68836B22F480521A438A6023
:102A600090F82410890606D501688A68C36B22F4A1
:102A700000521A438A6090F82410490611D5016863
:102A80004A68036C22F480121A434A60016CB1F563
:102A9000801F06D101684A68436C22F4C0021A43C1
:102AA0004A6090F82410090606D501684A68806CCF
:102AB00022F4002202434A607047F8B5002604461B
:102AC000C666FEF7B7FA0546206800686FF07E47D5
:102AD000000708D52B4600224FF40011204600972E
:102AE00000F0C0F860B92068006840070AD52B469E
:102AF00000224FF480012046009700F0B3F808B19F
:102B00000320F8BD202084F8690084F86A0084F866
:102B100068600020F8BD00002DE9F0410446102057
:102B20002369A268E6691A436369002133431A43A3
:102B300023680D461E68444F3E4016431E602268BF
:102B40005368E66823F4405333435360236AA26911
:102B50001A4323689E6826F4306616439E603B4BFA
:102B600022689A4210D13A4B1B6B13F0030311D029
:102B7000012B05D0022B05D0032B0CD102200AE03B
:102B8000042008E0082006E0324B9A4202D0324B83
:102B90009A4200D10020E6694FF400439E4226D1BC
:102BA00009281DD2DFE800F00508121C151C1C1CAA
:102BB0001800FEF771FC01E0FEF786FC410060683A
:102BC00001EB5001B1FBF0F081B20AE023496068EB
:102BD000F6E7FEF791FCF1E74FF480316068EFE72C
:102BE000012521F00F00C1F3420108431CE0092830
:102BF00025D2DFE800F005080B24102424241C0053
:102C0000FEF74AFC09E0FEF75FFC06E01449606845
:102C100001EB50010EE0FEF76FFC0146606801EB2E
:102C20005001B1FBF0F080B22168C86008E0606834
:102C300003EB5001B1FBF0F080B2D06000E0012561
:102C40002846BDE8F0810000F369FFEF003801403D
:102C50000010024000440040004800400024F400FE
:102C600000127A002DE9F041984617460E460446B8
:102C7000069D1DE0681C1BD02DB1FEF7DBF9A0EB13
:102C80000800A84214D92068016821F4D0710160BD
:102C90002068816821F001018160202084F86900AA
:102CA00084F86A00002084F868000320BDE8F08101
:102CB0002068C06936EA000004D00020B842D9D0AC
:102CC0000020F3E70120F9E7FEE700000FB4084B0E
:102CD00010B504A902AA039800F0DEF8044602A980
:102CE000002000F070FC204610BC5DF814FB0000D2
:102CF000C735000802E008C8121F08C1002AFAD12F
:102D000070477047002001E001C1121F002AFBD16B
:102D1000704700002DE9FF5F82B00021DDE904303B
:102D2000020DDDF840B0034318D044F61050A2F273
:102D3000FF3242431514119801281FD0A5EB0B0058
:102D4000401C5FEA000A4FF000064E4FDFF8389152
:102D5000B046504615D5CAF1000413E0119801247D
:102D60004AA3012801D16FEA0B010298119AC0E928
:102D70000031C0E9024206B0BDE8F09FCBF100008F
:102D8000DFE704460021404A491842EB0450CDE9F0
:102D9000001012E0E00707D032463B464046494665
:102DA000FDF71EFB8046894632463B4610461946D3
:102DB000FDF716FB06460F466410002CEAD1DDE94C
:102DC0000401DDE90023BAF1000F06DAFDF708FB84
:102DD00042464B46FDF704FB05E0FDF773FB424618
:102DE0004B46FDF76FFB04460E460022284BFDF7CD
:102DF000F1FB03D84FF0FF30014607E00022254BDE
:102E000020463146FDF745FAFDF7CBFB102409E0DB
:102E1000002C0ADB0A220023FDF70AFA039B30325A
:102E20001A55641E50EA0102F2D1641C039AC4F1DF
:102E300011031444119A012A03D0012208430DD131
:102E40000AE0084304D000204FF0110B119072E704
:102E5000A3EB0B056D1E0DE05B4504DD4FF000029A
:102E600005F1010504E003DA4FF00002A5F10105C8
:102E7000002AECD002981199C0E90231C0E900455E
:102E800079E70000000014400000F03F300000002F
:102E90000000F0430000E03F2DE9FF4F95B09B4656
:102EA0008946064600250FE2252877D100242746CB
:102EB000F84A0121059400E0044316F8013F203B45
:102EC00001FA03F01042F7D130782A2811D06FF0C0
:102ED0002F033078A0F13002092A16D8059A44F061
:102EE000020402EB820203EB42021044761C0590BE
:102EF000EFE759F8042B0592002A03DA504244F414
:102F00000054059044F00204761C30782E2816D127
:102F100016F8010F44F004042A280DD06FF02F0298
:102F20003078A0F13003092B09D807EB870302EBB7
:102F30004303C718761CF3E759F8047B761C3078F6
:102F40006C280FD006DC4C2817D068280DD06A28D2
:102F500014D104E0742810D07A280FD10DE044F485
:102F600000140AE044F4801401E044F44014727840
:102F7000824202D104F58014761C761C30786628D3
:102F80000BD013DC582877D009DC002875D04528F1
:102F9000F6D04628F4D047281AD19DE118E06328DE
:102FA00035D0642879D0652812D195E1702873D086
:102FB00008DC6728F1D069286FD06E280DD06F2803
:102FC00006D1B5E073282CD0752875D0782874D038
:102FD0005A46179990476D1C75E1C4F302500228B8
:102FE00009D003280DD0D9F8001004280DD00D60A9
:102FF00009F1040967E1D9F80010EA17C1E90052A4
:10300000F6E7D9F800100D80F2E70D70F0E719F837
:10301000041B8DF8001000208DF80100EA46012005
:1030200003E059F804AB4FF0FF3061074FF00001A7
:1030300002D40DE008F101018846B9420FDA80455B
:10304000F8DB1AF808100029F4D108E008F10101B2
:1030500088468142FADB1AF808100029F6D1059853
:103060005B46A0EB080721463846179A00F094FA11
:10307000284400EB080507E04DE029E10DE01AF8CF
:10308000010B5A4617999047B8F10108F7D25B46F1
:1030900021463846179A13E142E00A220092C4F30F
:1030A00002524FF0000A022A08D059F804CB032A32
:1030B0004FEAEC710AD00DE029E02AE009F107019E
:1030C00021F00702F2E802C1914609E00FFA8CFCF8
:1030D0004FEAEC71042A03D14FFA8CFC4FEAEC71F1
:1030E000002907DA0A460021DCF1000C61EB02013D
:1030F0002D2202E0220504D52B228DF80420012286
:1031000003E0E20701D02022F7E7904659E00A21C8
:1031100002E010220DE010214FF0000A00910BE0B8
:1031200010224FF0000A44F004040827009203E044
:1031300008224FF0000A0092C4F30252022A05D07E
:1031400059F804CB0021032A08D009E009F107014E
:1031500021F00702F2E802C1914605E01FFA8CFC5B
:10316000042A01D10CF0FF0C4FF00008220728D5EB
:10317000702806D0009B83F0100353EA0A0305D0A1
:103180000EE040228DF80420012208E05CEA0102F2
:1031900006D030228DF804208DF8050002229046DA
:1031A000009B83F0080353EA0A030AD15CEA010298
:1031B00001D1620705D530228DF804204FF00108B7
:1031C0007F1E582804D034A003900EA802900DE072
:1031D00036A0F9E753466046009AFDF729F8844681
:1031E0000398825C0298401E029002705CEA010023
:1031F000F0D1029806A9081A00F1200A600702D54A
:1032000024F4803400E00127574502DDA7EB0A00D3
:1032100000E0002000EB0A01009005984144401AAC
:103220000590E00306D45B462146179A059800F006
:10323000B3F90544002706E001A85A46C05D179976
:1032400090476D1C7F1C4745F6DBE0030CD55B46C1
:103250002146179A059800F09FF9054404E03020B4
:103260005A46179990476D1C0099481E00900029F6
:10327000F5DC08E0029802995A460078491C029150
:10328000179990476D1CBAF10001AAF1010AF1DC0F
:1032900065E100000928010030313233343536371A
:1032A0003839616263646566000000003031323392
:1032B0003435363738394142434445460000000032
:1032C00000F058F90544761C307800287FF4ECAD06
:1032D00019B02846BDE8F08F620700D4062709F12F
:1032E000070222F0070CFCE80223E14603F0004845
:1032F0005FEA080C02D00FF2702C0DE05FEA045C6C
:1033000002D50FF2682C07E05FEAC47C02D00FF20E
:10331000602C01E0AFF2700C4FF0FF3823F0004357
:10332000CDF850C065280CD006DC452809D04628C9
:103330001DD047283DD13DE0662818D067287ED1B2
:1033400038E00021112F01DB112000E0781CCDE9CD
:10335000000106A90EA8FFF7DDFCDDE90F010E9ABA
:1033600003910021009207F1010A04914DE04FF012
:1033700000400097CDE9011006A90EA8FFF7CAFC8E
:10338000DDE90F0203920E9B11990022DDF80CA0DB
:103390000093049211B9791C00EB010AB7EB0A0003
:1033A00004D4C0F1FF3007F1010A0490AAEB070032
:1033B000019044E0012F00DA01270021112F01DDE7
:1033C000112000E03846CDE9000106A90EA8FFF75C
:1033D000A1FCDDE90F010E9A0391002104910092F6
:1033E000BA4621070CD40399514500DA8A46BAF14E
:1033F000010F05DD009AAAF10101515C302908D0C6
:10340000B84202DA10F1040F06DA0121CDE9011009
:1034100015E0AAF10101E9E7002805DC049901445F
:103420000491AAEB000102E0411C514500DD8A46EF
:103430000499401A401C01904FF000400290200770
:1034400004D40198504501DBCDF8048000208DF8AC
:103450004F0002980DF14F07B0F1004F25D02B20FF
:103460000E9002984FF0020800280CDA40420290B9
:103470002D200E9007E00A210298FCF7C3FE3031A0
:10348000029007F8011DB8F10001A8F10108F2DC73
:1034900002980028EFD1791E0E980870307800F05D
:1034A000200040F0450007F8020D12A8C01B00F1F3
:1034B00007081498007800B1012000EB0A01019878
:1034C00001EBE07105984144401A401E0590E0036D
:1034D00006D45B462146179A059800F05DF805442E
:1034E0001498007818B15A46179990476D1CE0035C
:1034F00024D55B462146179A059800F04DF80544FF
:103500001CE00498002807DBDDE90301884203DDA5
:103510000098405C179901E0179930205A4690476F
:10352000049805F10105401C04900198401E01908B
:1035300004D12E205A46179990476D1CBAF100010C
:10354000AAF1010ADDDC05E017F8010B5A461799CC
:1035500090476D1CB8F10001A8F10108F4DC5B464E
:103560002146179A0598ABE62D0000002B000000BD
:10357000200000002DE9F041044600251E461746B4
:10358000880404D405E039462020B0476D1C641E31
:10359000F9D52846BDE8F0812DE9F0410446002523
:1035A0001E469046C80301D5302700E02027880436
:1035B00004D505E041463846B0476D1C641EF9D578
:1035C0002846BDE8F0810A68531C0B6010707047F4
:1035D0004001401EFDD270478AB0FDF739FDFEF76D
:1035E000BFFFFEF7E1FEFEF78FFFFEF7B1FEFEF72D
:1035F0004DFF00212848FEF709FD4FF400604310FD
:10360000CDE907308210C110CDE905124FF090408E
:103610000291CDE9032080234020CDE900031F4B18
:103620001F48FEF78BFD00261B4D1E4C19274FF43B
:10363000FA6A4FF001084FF07D0900BFFEF775FDF3
:1036400019A0FEF7E9FD14485438FDF7DBFB1248DA
:1036500005215438FDF76EFB20B90F485438FDF7AB
:103660005BFA6060FEF765FD6068FEF7BFFD322023
:10367000FDF708FCD4E90001B1EB500F03D9A660B7
:103680002868476304E0C4F808802968C1F83490CA
:103690005046FDF7F7FBD1E79400002000080048F2
:1036A000000400480000002054656D70657261746C
:1036B0007572650002030405060708090A0B0C0D64
:1036C0000E0F10100102030405060708090A0B0C6F
:1036D0000D0E0F10000000000000000001020304A6
:1036E0000607080900000000010203040C37000867
:1036F0000000002040000000F42C00084C370008B7
:103700004000002008050000042D000840000000D3
:103710000000000000000000010F38000000000061
:103720000000000000000000000000000000000099
:103730000000000000000000000000000100000088
:0C374000100000000000000000127A00E1
:040000050800018965
:00000001FF
